:020000020000FC
:100000000C94B2030C942A000C942A000C942A003D
:100010000C9425010C942A000C942A000C942A00BC
:100020000C942A000C942A000C942A000C942A00A8
:100030000C942A000C942C020C942A000C942A0094
:100040000C942A000C942A000C942A000C942A0088
:100050000C942A0018952E650D0017310E001F090B
:100060000F0001EE0F007FE0100067E1110097F133
:100070001200F61114007B4315002B8716001ADEC0
:1000800017006D4919005BCA1A0001010101010145
:100090000101010102020202020202020202020244
:1000A000020202020202020203040404040405051F
:1000B00005050606060606060708080809090A0ACD
:1000C0000A0A0B0C0C0C0C0D0E0F1011121213144B
:1000D00015161718191A1B1C1E2021222324262846
:1000E0002A2C2E30323436383A404244484C4F5253
:1000F00055585D6165686C70767E858A90969DA482
:10010000ABB0BAC4CED8E0E8F4FFFFFF0DC7C59A84
:100110005778915DC1489138FC2B3322971AAD1462
:100120001310800CB8098F07E00592048D03C302F9
:100130002602AB014C010201C9009C0079005E005F
:10014000490039002C0023001B00000001010101BF
:100150000101010101010202020202020203030382
:100160000303040404040404050505050606060645
:100170000606070707070707080808080808090907
:10018000090909090A0A0B0B0C0C0C0C0D0D0E0EBB
:100190000F0F101011111212131314141515161736
:1001A0001818191A1B1C1D1D1E1F20202121222278
:1001B0002324252526272828292A2B2C2D2D2E2FB0
:1001C00030303131323233343535363738383939E9
:1001D0003A3B3C3C3D3E3F40424344444546474712
:1001E00048494A4A4B4C4D4E4F5051525354555624
:1001F0005758595A5B5C5E5F60616264646566670C
:10020000686A6B6D6E6F7073737577787A7B7D7EBD
:100210007F808283858788898C8E9091939496982D
:100220009A9C9EA0A2A4A6A8ABAEB1B3B6B8BABB26
:10023000BDBFC1C3C6C9CCCED1D3D6D9DDE0E3E5BD
:10024000E8EBEEF0F2F4F6F9FCFF0F930FB70F9323
:100250001F932F933F934F935F936F937F93EF93EE
:10026000FF930F921F92E0917100E6FF0C944601FC
:100270001FEF1091B00043FC109544FC109546FC14
:10028000109547FC1095110F0C945001142D60919E
:10029000C600161710F01FEF01C010E0E1FF142D8B
:1002A000072D001F000BE2FF072DE0FD1027E3FFE5
:1002B00000E86091BD0010581603F0016091BE0087
:1002C00000580603E00DF11D0093C7008F0178016F
:1002D000889409191A0913F401E010E86091CA0022
:1002E000492D5A2D3091CC002091CB00421B530B4D
:1002F00013F441E050E82091720023FF02C09A01FC
:100300000FC056039001469F210D381D001C08F4B4
:1003100023958894220F331F8894220F331F99014D
:10032000020F131F13F40FEF1FE74091810020917C
:10033000720023FD4091820014039001049F210D5F
:10034000381D001C08F42395920EA31E23F43FEFE2
:100350002FE7932EA22E3A2D292DE091CB00F0917C
:10036000CC002E1B3F0B13F421E030E840918100BC
:100370002091720023FD4091820034039001249F5C
:10038000210D381DE20FF31F13F4EFEFFFE7E093A9
:10039000CB00F093CC000E2F1F2F2091720023FF73
:1003A00003C0E01AF10A8701E0E0F0E02091830049
:1003B0002F3F49F4E02FF12F08C015950795220F24
:1003C00010F4E00FF11F2223C1F7939AF05892988E
:1003D000F5BB9398939A929AE5BB9398939AE0EC25
:1003E000F0E00191200E0191301E0191401E01911B
:1003F000500E0191601E0191701EE0917100E6FDAA
:100400000C941D020091C7001091C8001030A9F093
:10041000010390010091C00011273003110B210C42
:10042000311E411E0091C1003003200C311C411EC1
:100430000091C2003003300C411C1F900F90FF91BF
:10044000EF917F916F915F914F913F912F911F910C
:100450000F910FBF0F9118950F930FB70F930CB11A
:10046000579878941F930023F2F4102F107F1038C0
:1004700051F0103941F0103B31F0103E21F010E006
:100480001093600095C0109360000F700395009367
:10049000610010917300112329F0101719F010E07A
:1004A0001093600085C010916000103819F0113869
:1004B00039F00AC01395109360000093620078C071
:1004C0001A951093600010C0103919F0113939F0E5
:1004D0003BC01395109360000093620069C01A95A9
:1004E000109360000023F9F4009162001091650000
:1004F000011719F41FEF10936500109164000117A4
:1005000049F4109165001F3F31F0109364001FEF14
:10051000109365004DC01FEF1093640010E010931E
:100520009600919A45C00093630010916400109367
:100530006500109162001093640011E01093960022
:1005400010939700919834C0103B19F0113B39F08B
:1005500016C01395109360000093620029C01A958D
:100560001093600010916200AF93BF93ADECB0E0C8
:10057000A10FB81D000F0C93BF91AF9119C0103E91
:1005800019F0113E39F014C01395109360000093D8
:1005900062000EC01A951093600010916200110F56
:1005A000110F001F0058109366000093670000C0F1
:1005B0001F910F910FBF0F91579A18950F9302E358
:1005C0000A95F1F70F91089527B9369A0895349B4B
:1005D000FECF349A04B115B1169507951695079577
:1005E0000895222331F02F93159507952A95E1F769
:1005F0002F910895442341F04F93369527951795F1
:1006000007954A95D1F74F910895442341F04F93B0
:10061000000F111F221F331F4A95D1F74F910895E4
:10062000019F8001089507FB07FD0195019F80014F
:100630002EF4009510950894081D181D0895EF9349
:100640004427552788279927AA27BB27CC27DD27AA
:100650000FC07695679530F4800F911FA21FB31FCE
:10066000C41FD51F000F111F221F331F441F551F0A
:10067000E62FE72B71F70A2F1B2F2C2F3D2FEF9121
:100680000895EE0FF0E0BB96EE0FFF1FC895002D0A
:100690003196C895102D3196C895202D3196C89564
:1006A000302D08956F937F93E72FEBDF802F912FED
:1006B000A22FB32FE72FE395E4DF081B190B2A0BBA
:1006C0003B0B8F939F93AF93BF93762F60E04F9335
:1006D000B6DF4F91BF91AF919F918F91080F191F76
:1006E0002A1F3B1F7F916F91089540E002C07C500C
:1006F00043957C30E0F70895EE0FFF1FE00FF81DE3
:10070000C8950895E00FF81DEE0FFF1FC895202D26
:100710003196C895302D0895069506950695E5E81D
:10072000F0E0F0DF00271127089560E0702F7037A8
:1007300018F0703938F00CC000E010E221E0E0E081
:10074000F0E00BC008E011E220E0ECE8FFE605C0B5
:1007500007EB1DE121E0E7E6F2EE30E070DF0E0F7F
:100760001F1F0895F89400913400006804BF04BF6F
:100770000FE518E00DBF1EBF882422243324442433
:100780005524662477249924AA2422273327EE2788
:10079000FF2705E00093BF0000E00093C80000932E
:1007A000C90000937800009396000093970000938F
:1007B000830000939F000093A0000093A10000938A
:1007C000850000937D0000937E0000937F000093DE
:1007D0006600009367000093CE0002E00093800063
:1007E0000FEF00936C000093810000938200009350
:1007F0006400009365000EE514EB26E70093AE005D
:100800001093AF002093B00000E010E020E00093D0
:10081000B1001093B2002093B30027E10093B7001A
:100820001093B8002093B9000FEF1FEF2FEF009344
:10083000B4001093B5002093B60021EE0093BA00E7
:100840001093BB002093BC0000E00093A200009333
:10085000A70000939E00009374000093750000931E
:1008600069000093770004E50093680004E00093BA
:100870006B0008E10093710000E10093720000E852
:100880000093790000937A0000937B0000937C0032
:1008900000E00BBB00E00ABB0FEF08BB00E007BBAA
:1008A00000E005BB0FEF04BB0CEF02BB0EEF01BB7A
:1008B000919A939A929800E003BF04E00EBD01E381
:1008C00003BD0AE005BD00E000BD0FE109B900E984
:1008D0000AB906E806B900E809BF789420918500B6
:1008E00073DE0CB51DB500939800109399000CB5FC
:1008F0001DB52091980030919900021B130B0A56E8
:10090000184108F486C00CB51DB5009398001093EB
:10091000990000E111E020E130E040E050E0E2B376
:10092000E06FE027E2BB4ADEE6B3E0FF312BE1FFF8
:10093000322BE2FF412BE3FF422BE4FF512B110F3F
:10094000220F000F61F702B3006F02BB30936E00FD
:1009500040936F005093700000916E0010916F00F3
:10096000209171003091720000FB37F901FB31F9E1
:1009700002FB34F903FB20F904FB36F905FB30F9DF
:1009800006FB33F907FB32F910FB24F911FB26F9BA
:1009900012FB27F913FB22F914FB25F915FB35F996
:1009A00016FB23F917FB21F9209371003093720095
:1009B000009170000093730034FF00E034FD01E00B
:1009C00010916C00011729F100936C00002700932F
:1009D0006D000091860000938E00009187000093C7
:1009E0008F0000918800009390000091890000938F
:1009F000910000918A000093920000918B00009377
:100A0000930000918C000093940000918D0000935E
:100A10009500DDDD20918500C6E8C20FD0E0088397
:100A20002395277020938500CFDD309172002091AF
:100A30006D0034FD0C9460050091860020FD0C943F
:100A40002A05302F10918E00311B0AF43195353074
:100A500018F02160009368000091870021FD0C943C
:100A60003A05302F10918F00311B0AF43195353043
:100A700028F021600093690000936A0000918C00C7
:100A800026FD0C944C05302F10919400311B0AF474
:100A90003195353018F021600093C80000918D0029
:100AA00027FD0C945C05302F10919500311B0AF442
:100AB0003195353018F02160009378000C94B3051F
:100AC0000091860020FD0C946E05302F10918E0051
:100AD000311B0AF43195353030F02160063F08F0C3
:100AE00006EF0093C9000091870021FD0C94810559
:100AF000302F10918F00311B0AF43195353018F0EA
:100B000021600093760000918C0026FD0C949105E5
:100B1000302F10919400311B0AF43195353038F0A4
:100B2000216003DE1058009374001093750000914B
:100B30008D0027FD0C94A505302F10919500311BD9
:100B40000AF43195353078F021600695069510E469
:100B5000101B103208F010E21093BD00003208F0B4
:100B600000E20093BE000091880000937C00009199
:100B7000890023FD0C94C505302F10919100311B85
:100B80000AF43195353038F02160E5EAF0E0B4DD63
:100B9000002D00937B0000918A0000937A00009161
:100BA0008B000093790020936D0000916300000F8B
:100BB000009377002091C900009181001FEF101B66
:100BC000169534E0130F211B08F420E02093CA008F
:100BD0006CB57DB5262F372F00919A0010919B00A0
:100BE000601B710B20939A0030939B0060939C00D4
:100BF00070939D000091680000958EDD60919C00CF
:100C000070919D001CDD3091A3004091A400509193
:100C1000A5005058F0E0E091A200EE23A1F460910D
:100C2000B4007091B5008091B600300F411F521F83
:100C300020F0361747075807C8F0362F472F582F90
:100C4000E1E0F1E013C06091B1007091B2008091D9
:100C5000B300301B410B520B20F06317740785075C
:100C600028F0362F472F582FE0E0F1E0E093A20064
:100C700050583093A3004093A4005093A50000E087
:100C800010E020E0E0917200E278E03849F4FF23C0
:100C9000B1F00091AE001091AF002091B0002F771D
:100CA0000093B1001093B2002093B300009510950B
:100CB00020950093B4001093B5002093B6000091E6
:100CC00072000278023829F4FF2361F05091B000DD
:100CD00007C000917200027019F0550F5FE7581DB0
:100CE0005093A6005091A60000917200007249F046
:100CF00000916A001091CE00011708F4012F0093B3
:100D0000690000916B00009507DD60919C00709177
:100D10009D0095DC3091A8004091A9005091AA0057
:100D20005058F0E0E091A700EE23A1F46091BA00E2
:100D30007091BB008091BC00300F411F521F20F00A
:100D4000361747075807C8F0362F472F582FE1E0CE
:100D5000F1E013C06091B7007091B8008091B900C4
:100D6000301B410B520B20F063177407850728F0E6
:100D7000362F472F582FE0E0F1E0E093A7005058BE
:100D80003093A8004093A9005093AA005058509364
:100D9000C60010919E0000917900113049F0009139
:100DA0007A00123029F000917C00143009F035C02F
:100DB000B3DC60919C0070919D0041DC30919F00FC
:100DC0004091A0005091A10060919E006430A9F074
:100DD000623049F0300F411F521FC8F43FEF4FEF10
:100DE0005FEF02E012C0301B410B520B50F06091DC
:100DF0007B00651760F003E008C0301B410B520B0D
:100E000030F430E040E050E000E000939E0030938A
:100E10009F004093A0005093A100009196000023F2
:100E200021F404E000939E002EC00091970000235F
:100E300051F100E000939700902EA02E0093CB007C
:100E40000093CC0000918000002319F00A950093D4
:100E5000800001E000939E0000E000939F0000935B
:100E6000A0000093A1000091720006FF0CC00FEFDC
:100E70001FEF2FE70093A3001093A4002093A50079
:100E800001E00093A20090E060E0709164007F3F79
:100E900011F49BC07C507136E8F701C0745F743266
:100EA000E8F37C5090917D00A0917E00B0917F008E
:100EB00000918000002381F5009178002DDC6F9374
:100EC0007F93622F732F00E010E020919C003091FF
:100ED0009D0043E08FDBB3DB7F916F91302F412F7B
:100EE000522F90917D00A0917E00B0917F006A17F3
:100EF0007B0738F4931BA40BB50B6A177B0750F0E4
:100F000006C0930FA41FB51F6A177B0718F490E063
:100F1000A62FB72F6A2F7B2F90937D0060937E00C2
:100F200070937F000091710005FF7C500091660076
:100F30001091670025E055DB202F312F020F131F82
:100F4000020F131F600F711F7093840000917200D5
:100F500000FF0C94C3070091A60010916900212F97
:100F60001695203810F01058120F5DDB24E039DBA5
:100F7000600F711F77231AF460E070E004C07D36C3
:100F800010F060E07CE66F937F93AFDB8BDB3DDBA3
:100F90001093C0002093C1003093C2007F916F91E5
:100FA000009174001091750024E01BDB600F711F2D
:100FB0000091710007FD745F98DB74DB26DB1093F2
:100FC000C3002093C4003093C500E0E0F0E000913E
:100FD000720000FD0C94F5070091A60010916900C5
:100FE00022DBE12FF0E0111FFF0B0091A100109117
:100FF0007700019F8001001FE11FF81D0091720022
:10100000047059F000918400000F00561BEA0BDBBE
:1010100020E017FD2FEFE10FF21F0091760011275E
:101020000E0F1F1F112312F400E002C009F00FEF92
:101030000695E5E4F0E060DB009281000AE0001A2A
:1010400010F400E0002E00928200109171001071E7
:1010500031F400919600079500E0000B06C0009166
:10106000A100E5EAF0E048DB002D00938300009149
:10107000AE001091AF002091B00027FB30F922FBA9
:1010800040F934273695001F111F221F0093AE0030
:0A1090001093AF002093B0002ACCAB
:00000001FF
