:020000020000FC
:100000000C94A7030C942A000C942A000C942A0048
:100010000C9425010C942A000C942A000C942A00BC
:100020000C942A000C942A000C942A000C942A00A8
:100030000C942A000C9427020C942A000C942A0099
:100040000C942A000C942A000C942A000C942A0088
:100050000C942A0018952E650D0017310E001F090B
:100060000F0001EE0F007FE0100067E1110097F133
:100070001200F61114007B4315002B8716001ADEC0
:1000800017006D4919005BCA1A0001010101010145
:100090000101010102020202020202020202020244
:1000A000020202020202020203040404040405051F
:1000B00005050606060606060708080809090A0ACD
:1000C0000A0A0B0C0C0C0C0D0E0F1011121213144B
:1000D00015161718191A1B1C1E2021222324262846
:1000E0002A2C2E30323436383A404244484C4F5253
:1000F00055585D6165686C70767E858A90969DA482
:10010000ABB0BAC4CED8E0E8F4FFFFFF0DC7C59A84
:100110005778915DC1489138FC2B3322971AAD1462
:100120001310800CB8098F07E00592048D03C302F9
:100130002602AB014C010201C9009C0079005E005F
:10014000490039002C0023001B00000001010101BF
:100150000101010101010202020202020203030382
:100160000303040404040404050505050606060645
:100170000606070707070707080808080808090907
:10018000090909090A0A0B0B0C0C0C0C0D0D0E0EBB
:100190000F0F101011111212131314141515161736
:1001A0001818191A1B1C1D1D1E1F20202121222278
:1001B0002324252526272828292A2B2C2D2D2E2FB0
:1001C00030303131323233343535363738383939E9
:1001D0003A3B3C3C3D3E3F40424344444546474712
:1001E00048494A4A4B4C4D4E4F5051525354555624
:1001F0005758595A5B5C5E5F60616264646566670C
:10020000686A6B6D6E6F7073737577787A7B7D7EBD
:100210007F808283858788898C8E9091939496982D
:100220009A9C9EA0A2A4A6A8ABAEB1B3B6B8BABB26
:10023000BDBFC1C3C6C9CCCED1D3D6D9DDE0E3E5BD
:10024000E8EBEEF0F2F4F6F9FCFF0F930FB70F9323
:100250001F932F933F934F935F936F937F93EF93EE
:10026000FF930F921F92E0917100E6FF0C944601FC
:100270001FEF1091AB0043FC109544FC109546FC19
:10028000109547FC1095110F0C944B01142D111F64
:10029000110BE1FF142D072D001F000BE2FF072DAE
:1002A000E0FD1027E3FF00E86091B200105816034C
:1002B000F0016091B30000580603E00DF11D0093BA
:1002C000BB008F017801889409191A0913F401E021
:1002D00010E86091BE00492D5A2D3091C000209148
:1002E000BF00421B530B13F441E050E82091720011
:1002F00023FF02C09A010FC056039001469F210DB3
:10030000381D001C08F423958894220F331F88940D
:10031000220F331F9901020F131F13F40FEF1FE772
:10032000409181002091720023FD409182001403CE
:100330009001049F210D381D001C08F42395920E96
:10034000A31E23F43FEF2FE7932EA22E3A2D292D43
:10035000E091BF00F091C0002E1B3F0B13F421E091
:1003600030E8409181002091720023FD409182008D
:1003700034039001249F210D381DE20FF31F13F465
:10038000EFEFFFE7E093BF00F093C0000E2F1F2FA9
:100390002091720023FF03C0E01AF10A8701E0E018
:1003A000F0E0209183002F3F49F4E02FF12F08C0A7
:1003B00015950795220F10F4E00FF11F2223C1F7C6
:1003C000939AF0589298F5BB9398939A929AE5BBBA
:1003D0009398939AE5EBF0E00191200E0191301E85
:1003E0000191401E0191500E0191601E0191701EFD
:1003F000E0917100E6FD0C9418020091BB00109191
:10040000BC001030A9F0010390010091B500112744
:100410003003110B210C311E411E0091B600300338
:10042000200C311C411E0091B7003003300C411CE0
:100430001F900F90FF91EF917F916F915F914F917E
:100440003F912F911F910F910FBF0F9118950F930F
:100450000FB70F930CB1579878941F930023F2F4C1
:10046000102F107F103851F0103941F0103B31F04F
:10047000103E21F010E01093600090C010936000D7
:100480000F7003950093610010917300112329F000
:10049000101719F010E01093600080C010916000F8
:1004A000103819F0113839F00AC013951093600014
:1004B0000093620073C01A951093600010C0103949
:1004C00019F0113939F03BC0139510936000009377
:1004D000620064C01A95109360000023F9F4009143
:1004E000620010916500011719F41FEF1093650069
:1004F00010916400011749F4109165001F3F31F01D
:10050000109364001FEF1093650048C01FEF109315
:10051000640010E010939600919A40C0009363002D
:1005200010916400109365001091620010936400B4
:1005300011E0109396001093970091982FC0103BF4
:1005400019F0113B39F011C013951093600000931E
:10055000620024C01A95109360001091620011305F
:10056000E9F4000F0093680019C0103E19F0113E25
:1005700039F014C0139510936000009362000EC010
:100580001A951093600010916200110F110F001F57
:100590000058109366000093670000C01F910F91F0
:1005A0000FBF0F91579A18950F9302E30A95F1F731
:1005B0000F91089527B9369A0895349BFECF349A47
:1005C00004B115B116950795169507950895222340
:1005D00031F02F93159507952A95E1F72F910895FE
:1005E000442341F04F9336952795179507954A95E3
:1005F000D1F74F910895442341F04F93000F111FFD
:10060000221F331F4A95D1F74F910895019F800112
:10061000089507FB07FD0195F9DF2EF4009510956D
:100620000894081D181D0895EF934427552788271F
:100630009927AA27BB27CC27DD270FC0769567957A
:1006400030F4800F911FA21FB31FC41FD51F000FCE
:10065000111F221F331F441F551FE62FE72B71F771
:100660000A2F1B2F2C2F3D2FEF910895EE0FF0E056
:10067000BB96EE0FFF1FC895002D3196C895102D23
:100680003196C895202D3196C895302D08956F93D9
:100690007F93E72FEBDF802F912FA22FB32FE72F30
:1006A000E395E4DF081B190B2A0B3B0B8F939F93F9
:1006B000AF93BF93762F60E04F93B6DF4F91BF911A
:1006C000AF919F918F91080F191F2A1F3B1F7F9198
:1006D0006F91089540E002C07C5043957C30E0F774
:1006E0000895EE0FFF1FE00FF81DC8950895E00F65
:1006F000F81DEE0FFF1FC895202D3196C895302D9F
:100700000895069506950695E5E8F0E0F0DF0027E8
:100710001127089560E0702F703718F0703938F0A5
:100720000CC000E010E221E0E0E0F0E00BC008E0E7
:1007300011E220E0ECE8FFE605C007EB1DE121E057
:10074000E7E6F2EE30E070DF0E0F1F1F0895F89419
:1007500000913400006804BF04BF0FE518E00DBF2E
:100760001EBF88242224332444245524662477245D
:100770009924AA2422273327EE27FF2705E0009398
:10078000B40000E00093BD00009378000093960051
:10079000009397000093830000939F000093A000B4
:1007A0000093A1000093850000937D0000937E00DC
:1007B00000937F0000936600009367000093680039
:1007C00002E0009380000FEF00936C000093810023
:1007D0000093820000936400009365000EE514EB23
:1007E00026E70093A9001093AA002093AB0000E035
:1007F00010E020E00093AC001093AD002093AE0019
:100800000FEF1FEF2FEF0093AF001093B000209376
:10081000B10000E00093A20000939E0000937400DA
:100820000093750000936A000093770004E500933D
:10083000690008E10093710000E10093720000E894
:100840000093790000937A0000937B0000937C0072
:1008500000E00BBB00E00ABB0FEF08BB00E007BBEA
:1008600000E005BB0FEF04BB0CEF02BB0EEF01BBBA
:10087000919A939A929800E003BF04E00EBD01E3C1
:1008800003BD0AE005BD00E000BD0FE109B900E9C4
:100890000AB906E806B900E809BF789420918500F6
:1008A00089DE0CB51DB500939800109399000CB526
:1008B0001DB52091980030919900021B130B0A5628
:1008C000184108F486C00CB51DB50093980010932C
:1008D000990000E111E020E130E040E050E0E2B3B7
:1008E000E06FE027E2BB60DEE6B3E0FF312BE1FF23
:1008F000322BE2FF412BE3FF422BE4FF512B110F80
:10090000220F000F61F702B3006F02BB30936E003D
:1009100040936F005093700000916E0010916F0033
:10092000209171003091720000FB37F901FB31F921
:1009300002FB34F903FB20F904FB32F905FB30F923
:1009400006FB33F907FB32F910FB24F911FB26F9FA
:1009500012FB27F913FB22F914FB25F915FB35F9D6
:1009600016FB23F917FB21F92093710030937200D5
:10097000009170000093730034FF00E034FD01E04B
:1009800010916C00011729F100936C00002700936F
:100990006D000091860000938E0000918700009307
:1009A0008F000091880000939000009189000093CF
:1009B000910000918A000093920000918B000093B7
:1009C000930000918C000093940000918D0000939F
:1009D0009500F3DD20918500C6E8C20FD0E00883C2
:1009E0002395277020938500E5DD309172002091DA
:1009F0006D0034FD0C9440050091860020FD0C94A0
:100A00000A05302F10918E00311B0AF431953530D4
:100A100018F02160009369000091870021FD0C947B
:100A20001A05302F10918F00311B0AF431953530A3
:100A300028F0216000936A0000936B0000918C0005
:100A400026FD0C942C05302F10919400311B0AF4D4
:100A50003195353018F021600093BC0000918D0075
:100A600027FD0C943C05302F10919500311B0AF4A2
:100A70003195353018F02160009378000C9493057F
:100A80000091860020FD0C944E05302F10918E00B1
:100A9000311B0AF43195353030F02160063F08F003
:100AA00006EF0093BD000091870021FD0C946105C5
:100AB000302F10918F00311B0AF43195353018F02A
:100AC00021600093760000918C0026FD0C94710546
:100AD000302F10919400311B0AF43195353038F0E5
:100AE000216018DE10580093740010937500009177
:100AF0008D0027FD0C948505302F10919500311B3A
:100B00000AF43195353078F021600695069510E4A9
:100B1000101B103208F010E21093B200003208F0FF
:100B200000E20093B3000091880000937C000091E4
:100B3000890023FD0C94A505302F10919100311BE5
:100B40000AF43195353038F02160E5EAF0E0C9DD8E
:100B5000002D00937B0000918A0000937A000091A1
:100B60008B000093790020936D0000916300000FCB
:100B7000009377002091BD00009181001FEF101BB2
:100B8000169534E0130F211B08F420E02093BE00DB
:100B90006CB57DB5262F372F00919A0010919B00E0
:100BA000601B710B20939A0030939B0060939C0014
:100BB00070939D00009169000095A3DD60919C00F9
:100BC00070919D0031DD3091A3004091A4005091BF
:100BD000A5005058F0E0E091A200EE23A1F460914E
:100BE000AF007091B0008091B100300F411F521FD3
:100BF00020F0361747075807C8F0362F472F582FD1
:100C0000E1E0F1E013C06091AC007091AD00809123
:100C1000AE00301B410B520B20F0631774078507A1
:100C200028F0362F472F582FE0E0F1E0E093A200A4
:100C300050583093A3004093A4005093A50000E0C7
:100C400010E020E0E0917200E278E03849F4FF2300
:100C5000B1F00091A9001091AA002091AB002F776C
:100C60000093AC001093AD002093AE00009510955A
:100C700020950093AF001093B0002093B100009135
:100C800072000278023829F4FF2361F05091AB0022
:100C900007C000917200027019F0550F5FE7581DF0
:100CA0005093A6005091A60000917200007249F086
:100CB00000916B0010916800011708F4012F009358
:100CC0006A0010919E0000917900113049F0009166
:100CD0007A00123029F000917C00143009F035C000
:100CE00010DD60919C0070919D009EDC30919F0012
:100CF0004091A0005091A10060919E006430A9F045
:100D0000623049F0300F411F521FC8F43FEF4FEFE0
:100D10005FEF02E012C0301B410B520B50F06091AC
:100D20007B00651760F003E008C0301B410B520BDD
:100D300030F430E040E050E000E000939E0030935B
:100D40009F004093A0005093A100009196000023C3
:100D500021F404E000939E002EC000919700002330
:100D600051F100E000939700902EA02E0093BF0059
:100D70000093C00000918000002319F00A950093B1
:100D8000800001E000939E0000E000939F0000932C
:100D9000A0000093A10000917200007461F00FEFB9
:100DA0001FEF2FE70093A3001093A4002093A5004A
:100DB00001E00093A20090E060E0709164007F3F4A
:100DC00011F49BC07C507136E8F701C0745F743237
:100DD000E8F37C5090917D00A0917E00B0917F005F
:100DE00000918000002381F5009178008ADC6F93E8
:100DF0007F93622F732F00E010E020919C003091D0
:100E00009D0043E0EDDB10DC7F916F91302F412F8F
:100E1000522F90917D00A0917E00B0917F006A17C3
:100E20007B0738F4931BA40BB50B6A177B0750F0B4
:100E300006C0930FA41FB51F6A177B0718F490E034
:100E4000A62FB72F6A2F7B2F90937D0060937E0093
:100E500070937F000091710005FF7C500091660047
:100E60001091670025E0B3DB202F312F020F131FF5
:100E7000020F131F600F711F7093840000917200A6
:100E800000FF0C945B070091A60010916A00212FCF
:100E90001695203810F01058120FBBDB24E097DBBA
:100EA000600F711F77231AF460E070E004C07D3694
:100EB00010F060E07CE66F937F930CDCE8DB9BDB5B
:100EC0001093B5002093B6003093B7007F916F91D7
:100ED000009174001091750024E079DB600F711FA0
:100EE0000091710007FD745FF5DBD1DB84DB1093AB
:100EF000B8002093B9003093BA00E0E0F0E0009130
:100F0000720000FD0C948D070091A60010916A00FC
:100F100080DBE12FF0E0111FFF0B0091A100109189
:100F2000770074DB001FE11FF81D00917200047050
:100F300059F000918400000F00561BEA6ADB20E0A4
:100F400017FD2FEFE10FF21F0091760011270E0F12
:100F50001F1F112312F400E002C009F00FEF0695E5
:100F6000E5E4F0E0BEDB009281000AE0001A10F434
:100F700000E0002E0092820010917100107131F497
:100F800000919600079500E0000B06C00091A100BB
:100F9000E5EAF0E0A6DB002D009383000091A900B4
:100FA0001091AA002091AB0027FB30F922FB40F9F9
:100FB00034273695001F111F221F0093A90010939C
:080FC000AA002093AB0073CCE2
:00000001FF
