:020000020000FC
:100000000C94C1030C942A000C942A000C942A002E
:100010000C9425010C942A000C942A000C942A00BC
:100020000C942A000C942A000C942A000C942A00A8
:100030000C942A000C942C020C942A000C942A0094
:100040000C942A000C942A000C942A000C942A0088
:100050000C942A0018952E650D0017310E001F090B
:100060000F0001EE0F007FE0100067E1110097F133
:100070001200F61114007B4315002B8716001ADEC0
:1000800017006D4919005BCA1A0001010101010145
:100090000101010102020202020202020202020244
:1000A000020202020202020203040404040405051F
:1000B00005050606060606060708080809090A0ACD
:1000C0000A0A0B0C0C0C0C0D0E0F1011121213144B
:1000D00015161718191A1B1C1E2021222324262846
:1000E0002A2C2E30323436383A404244484C4F5253
:1000F00055585D6165686C70767E858A90969DA482
:10010000ABB0BAC4CED8E0E8F4FFFFFF0DC7C59A84
:100110005778915DC1489138FC2B3322971AAD1462
:100120001310800CB8098F07E00592048D03C302F9
:100130002602AB014C010201C9009C0079005E005F
:10014000490039002C0023001B00000001010101BF
:100150000101010101010202020202020203030382
:100160000303040404040404050505050606060645
:100170000606070707070707080808080808090907
:10018000090909090A0A0B0B0C0C0C0C0D0D0E0EBB
:100190000F0F101011111212131314141515161736
:1001A0001818191A1B1C1D1D1E1F20202121222278
:1001B0002324252526272828292A2B2C2D2D2E2FB0
:1001C00030303131323233343535363738383939E9
:1001D0003A3B3C3C3D3E3F40424344444546474712
:1001E00048494A4A4B4C4D4E4F5051525354555624
:1001F0005758595A5B5C5E5F60616264646566670C
:10020000686A6B6D6E6F7073737577787A7B7D7EBD
:100210007F808283858788898C8E9091939496982D
:100220009A9C9EA0A2A4A6A8ABAEB1B3B6B8BABB26
:10023000BDBFC1C3C6C9CCCED1D3D6D9DDE0E3E5BD
:10024000E8EBEEF0F2F4F6F9FCFF0F930FB70F9323
:100250001F932F933F934F935F936F937F93EF93EE
:10026000FF930F921F92E0917200E6FF0C944601FB
:100270001FEF1091B10043FC109544FC109546FC13
:10028000109547FC1095110F0C945001142D60919E
:10029000C700161710F01FEF01C010E0E1FF142D8A
:1002A000072D001F000BE2FF072DE0FD1027E3FFE5
:1002B00000E86091BE0010581603F0016091BF0085
:1002C00000580603E00DF11D0093C8008F0178016E
:1002D000889409191A0913F401E010E86091CD001F
:1002E000492D5A2D3091CF002091CE00421B530B47
:1002F00013F441E050E82091730023FF02C09A01FB
:100300000FC056039001469F210D381D001C08F4B4
:1003100023958894220F331F8894220F331F99014D
:10032000020F131F13F40FEF1FE74091820020917B
:10033000730023FD4091830014039001049F210D5D
:10034000381D001C08F42395920EA31E23F43FEFE2
:100350002FE7932EA22E3A2D292DE091CE00F09179
:10036000CF002E1B3F0B13F421E030E840918200B8
:100370002091730023FD4091830034039001249F5A
:10038000210D381DE20FF31F13F4EFEFFFE7E093A9
:10039000CE00F093CF000E2F1F2F2091730023FF6C
:1003A00003C0E01AF10A8701E0E0F0E02091840048
:1003B0002F3F49F4E02FF12F08C015950795220F24
:1003C00010F4E00FF11F2223C1F7939AF05892988E
:1003D000F5BB9398939A929AE5BB9398939AE1EC24
:1003E000F0E00191200E0191301E0191401E01911B
:1003F000500E0191601E0191701EE0917200E6FDA9
:100400000C941D020091C8001091C9001030A9F091
:10041000010390010091C10011273003110B210C41
:10042000311E411E0091C2003003200C311C411EC0
:100430000091C3003003300C411C1F900F90FF91BE
:10044000EF917F916F915F914F913F912F911F910C
:100450000F910FBF0F9118950F930FB70F930CB11A
:10046000579878941F930023F2F4102F107F1038C0
:1004700051F0103941F0103B31F0103E21F010E006
:100480001093600095C0109360000F700395009367
:10049000610010917400112329F0101719F010E079
:1004A0001093600085C010916000103819F0113869
:1004B00039F00AC01395109360000093620078C071
:1004C0001A951093600010C0103919F0113939F0E5
:1004D0003BC01395109360000093620069C01A95A9
:1004E000109360000023F9F4009162001091650000
:1004F000011719F41FEF10936500109164000117A4
:1005000049F4109165001F3F31F0109364001FEF14
:10051000109365004DC01FEF1093640010E010931E
:100520009700919A45C00093630010916400109366
:100530006500109162001093640011E01093970021
:1005400010939800919834C0103B19F0113B39F08A
:1005500016C01395109360000093620029C01A958D
:100560001093600010916200AF93BF93A0EDB0E0D4
:10057000A10FB81D000F0C93BF91AF9119C0103E91
:1005800019F0113E39F014C01395109360000093D8
:1005900062000EC01A951093600010916200110F56
:1005A000110F001F0058109366000093670000C0F1
:1005B0001F910F910FBF0F91579A18950F9302E358
:1005C0000A95F1F70F91089527B9369A0895349B4B
:1005D000FECF349A04B115B1169507951695079577
:1005E0000895222331F02F93159507952A95E1F769
:1005F0002F910895442341F04F93369527951795F1
:1006000007954A95D1F74F910895442341F04F93B0
:10061000000F111F221F331F4A95D1F74F910895E4
:10062000019F8001089507FB07FD0195019F80014F
:100630002EF4009510950894081D181D0895EF9349
:100640004427552788279927AA27BB27CC27DD27AA
:100650000FC07695679530F4800F911FA21FB31FCE
:10066000C41FD51F000F111F221F331F441F551F0A
:10067000E62FE72B71F70A2F1B2F2C2F3D2FEF9121
:100680000895EE0FF0E0BB96EE0FFF1FC895002D0A
:100690003196C895102D3196C895202D3196C89564
:1006A000302D08956F937F93E72FEBDF802F912FED
:1006B000A22FB32FE72FE395E4DF081B190B2A0BBA
:1006C0003B0B8F939F93AF93BF93762F60E04F9335
:1006D000B6DF4F91BF91AF919F918F91080F191F76
:1006E0002A1F3B1F7F916F91089540E002C07C500C
:1006F00043957C30E0F70895EE0FFF1FE00FF81DE3
:10070000C8950895E00FF81DEE0FFF1FC895202D26
:100710003196C895302D0895069506950695E5E81D
:10072000F0E0F0DF00271127089560E0702F7037A8
:1007300018F0703938F00CC000E010E221E0E0E081
:10074000F0E00BC008E011E220E0ECE8FFE605C0B5
:1007500007EB1DE121E0E7E6F2EE30E070DF0E0F7F
:100760001F1F0895E199FECF2FBB1EBB0DBBE29A60
:10077000E19A0895E199FECF2FBB1EBBE09A0DB31D
:100780000895F89400913400006804BF04BF0FE599
:1007900018E00DBF1EBF882422243324442455248E
:1007A000662477249924AA2422273327EE27FF27BB
:1007B00005E00093C00000E00093C9000093CC0066
:1007C00000937900009397000093980000938400B1
:1007D0000093A0000093A1000093A2000093860064
:1007E00000937E0000937F000093800000936600DA
:1007F000009367000093D10002E0009381000FEFA7
:1008000000936C0000936D000093820000938300BE
:1008100000936400009365000EE514EB26E7009357
:10082000AF001093B0002093B10000E010E020E092
:100830000093B2001093B3002093B40027E100931B
:10084000B8001093B9002093BA000FEF1FEF2FEFFD
:100850000093B5001093B6002093B70021EE0093EB
:10086000BB001093BC002093BD0000E00093CB00C0
:100870001093CA0000936E000093A3000093A80099
:1008800000939F0000937500009376000093690029
:100890000093780004E50093680004E000936B0087
:1008A00008E10093720000E10093730000E80093F8
:1008B0007A0000937B0000937C0000937D000FB7CB
:1008C00020E010E057DF0093BE00139553DF009344
:1008D000BF0013954FDF0093750013954BDF009316
:1008E0007600139547DF00937700139543DF00935D
:1008F000CC0013953FDF0093790013953BDF009305
:10090000C900139537DF00936A00139533DF009316
:1009100068000FBF00E00BBB00E00ABB0FEF08BB95
:1009200000E007BB00E005BB0FEF04BB0CEF02BB10
:100930000EEF01BB919A939A929800E003BF04E0F6
:100940000EBD01E303BD0AE005BD00E000BD0FE1FF
:1009500009B900E90AB906E806B900E809BF7894C0
:100960002091860031DE33DE20918600C7E8C20F79
:10097000D0E00883239528DE2ADEC7E8C20FD0E046
:10098000088326E021DE23DEC7E8C20FD0E008831B
:1009900023951ADE1CDEC7E8C20FD0E0088322E0F0
:1009A0002093860011DE0091870000938F00009154
:1009B00088000093900000918D00009395000091B5
:1009C0008E00009396000CB51DB50093990010930E
:1009D0009A000CB51DB52091990030919A00021B28
:1009E000130B0A56184108F494C00CB51DB50093BA
:1009F000990010939A0000E111E020E130E040E01E
:100A000050E0E2B3E06FE027E2BBD8DDE6B3E0FF01
:100A1000312BE1FF322BE2FF412BE3FF422BE4FFBE
:100A2000512B110F220F000F61F702B3006F02BBB1
:100A300030936F00409370005093710000916F00ED
:100A400010917000209172003091730000FB37F913
:100A500001FB31F902FB34F903FB20F904FB36F901
:100A600005FB30F906FB33F907FB32F910FB24F9DB
:100A700011FB26F912FB27F913FB22F914FB25F9C8
:100A800015FB35F916FB23F917FB21F920937200AA
:100A900030937300009171000093740010916D0009
:100AA00010FF0AC034FF00E034FD01E000936C0049
:100AB000112710936D002DC034FF00E034FD01E0DC
:100AC00010916C00011709F424C000936C0034FDF0
:100AD00007C001E00093CA0000E00093CB0006C00D
:100AE00000E00093CA0006E00093CB0000270093CB
:100AF0006E000091870000938F00009188000093A2
:100B0000900000918D000093950000918E0000935D
:100B100096000091CA0007FD4DC0E1994BC000FD51
:100B200014C00091CB00063039F0073041F0083096
:100B300049F01091680026C01091790023C01091EF
:100B4000C90020C010916A001DC00091CB00003088
:100B500059F0013061F0023069F0033071F0043077
:100B600079F01091CC000EC01091BE000BC0109116
:100B7000BF0008C01091750005C01091760002C03A
:100B80001091770030E03FBB0EBB1DBB1FB7F89440
:100B9000E29AE19A1FBF7894053031F0093021F0D4
:100BA00003950093CB0006C010E01093CB001FEF1D
:100BB0001093CA000CDD20918600C7E8C20FD0E078
:100BC00008832395277020938600FEDC3091730004
:100BD00020916E0034FD0C9431060091870020FDB9
:100BE0000C94FB05302F10918F00311B0AF43195C6
:100BF000353018F02160009368000091880021FDD5
:100C00000C940B06302F10919000311B0AF4319593
:100C1000353028F022600093690000936A0000914B
:100C20008D0026FD0C941D06302F10919500311B70
:100C30000AF43195353018F020640093C900009112
:100C40008E0027FD0C942D06302F10919600311B3D
:100C50000AF43195353018F02068009379000C942F
:100C600084060091870020FD0C943F06302F1091E0
:100C70008F00311B0AF43195353030F02160063F8A
:100C800008F006EF0093CC000091880021FD0C9441
:100C90005206302F10919000311B0AF431953530F7
:100CA00018F022600093770000918D0026FD0C94CF
:100CB0006206302F10919500311B0AF431953530C2
:100CC00038F0206432DD10580093750010937600E0
:100CD00000918E0027FD0C947606302F109196001F
:100CE000311B0AF43195353078F020680695069569
:100CF00010E4101B103208F010E21093BE00003216
:100D000008F000E20093BF000091890000937D008D
:100D100000918A0023FD0C949606302F10919200CA
:100D2000311B0AF43195353038F02460E5EAF0E003
:100D3000E3DC002D00937C0000918B0000937B008E
:100D400000918C0000937A0020936E000091630064
:100D5000000F009378002091CC00009182001FEFDB
:100D6000101B169534E0130F211B08F420E020938C
:100D7000CD006CB57DB5262F372F00919B001091CB
:100D80009C00601B710B20939B0030939C00609330
:100D90009D0070939E00009168000095BDDC6091FD
:100DA0009D0070919E004BDC3091A4004091A50005
:100DB0005091A6005058F0E0E091A300EE23A1F47A
:100DC0006091B5007091B6008091B700300F411F5F
:100DD000521F20F0361747075807C8F0362F472F05
:100DE000582FE1E0F1E013C06091B2007091B300C0
:100DF0008091B400301B410B520B20F06317740735
:100E0000850728F0362F472F582FE0E0F1E0E093D8
:100E1000A30050583093A4004093A5005093A6001F
:100E200000E010E020E0E0917300E278E03849F45F
:100E3000FF23B1F00091AF001091B0002091B100FC
:100E40002F770093B2001093B3002093B400009565
:100E5000109520950093B5001093B6002093B7002D
:100E6000009173000278023829F4FF2361F0509159
:100E7000B10007C000917300027019F0550F5FE7D1
:100E8000581D5093A7005091A70000917300007265
:100E900049F000916A001091D100011708F4012F68
:100EA0000093690000916B00009536DC60919D0015
:100EB00070919E00C4DB3091A9004091AA0050912E
:100EC000AB005058F0E0E091A800EE23A1F460914F
:100ED000BB007091BC008091BD00300F411F521FBC
:100EE00020F0361747075807C8F0362F472F582FDE
:100EF000E1E0F1E013C06091B8007091B900809119
:100F0000BA00301B410B520B20F0631774078507A2
:100F100028F0362F472F582FE0E0F1E0E093A800AB
:100F200050583093A9004093AA005093AB005058FA
:100F30005093C70010919F0000917A00113049F042
:100F400000917B00123029F000917D00143009F0EF
:100F500035C0E2DB60919D0070919E0070DB3091A6
:100F6000A0004091A1005091A20060919F006430C8
:100F7000A9F0623049F0300F411F521FC8F43FEF13
:100F80004FEF5FEF02E012C0301B410B520B50F0ED
:100F900060917C00651760F003E008C0301B410BD6
:100FA000520B30F430E040E050E000E000939F004E
:100FB0003093A0004093A1005093A20000919700AD
:100FC000002321F404E000939F002EC000919800BC
:100FD000002351F100E000939800902EA02E009382
:100FE000CE000093CF0000918100002319F00A95F4
:100FF0000093810001E000939F0000E00093A000B7
:101000000093A1000093A2000091730006FF0CC0A2
:101010000FEF1FEF2FE70093A4001093A50020937C
:10102000A60001E00093A30090E060E070916400EE
:101030007F3F11F49BC07C507136E8F701C0745FAC
:101040007432E8F37C5090917E00A0917F00B091C3
:10105000800000918100002381F5009179005CDB24
:101060006F937F93622F732F00E010E020919D001B
:1010700030919E0043E0BEDAE2DA7F916F91302F2B
:10108000412F522F90917E00A0917F00B09180005F
:101090006A177B0738F4931BA40BB50B6A177B0701
:1010A00050F006C0930FA41FB51F6A177B0718F4F2
:1010B00090E0A62FB72F6A2F7B2F90937E0060932E
:1010C0007F00709380000091720005FF7C500091BA
:1010D00066001091670025E084DA202F312F020F7F
:1010E000131F020F131F600F711F70938500009173
:1010F000730000FF0C9494080091A7001091690000
:10110000212F1695203810F01058120F8CDA24E099
:1011100068DA600F711F77231AF460E070E004C092
:101120007D3610F060E07CE66F937F93DEDABADA0A
:101130006CDA1093C1002093C2003093C3007F91FA
:101140006F91009175001091760024E04ADA600FEB
:10115000711F0091720007FD745FC7DAA3DA55DAD8
:101160001093C4002093C5003093C600E0E0F0E087
:101170000091730000FD0C94C6080091A700109127
:10118000690051DAE12FF0E0111FFF0B0091A2007E
:1011900010917800019F8001001FE11FF81D009150
:1011A0007300047059F000918500000F00561BEA8F
:1011B0003ADA20E017FD2FEFE10FF21F00917700E0
:1011C00011270E0F1F1F112312F400E002C009F0B7
:1011D0000FEF0695E5E4F0E08FDA009282000AE076
:1011E000001A10F400E0002E0092830010917200AB
:1011F000107131F400919700079500E0000B06C0D4
:101200000091A200E5EAF0E077DA002D0093840077
:101210000091AF001091B0002091B10027FB30F990
:1012200022FB40F934273695001F111F221F00931F
:0C123000AF001093B0002093B100CBCBB6
:00000001FF
